:020000020000FC
:100000000FEF0DBF18E01EBF00E80093610001E094
:100010000093610000E00093C1002CE03FE134B99F
:1000200027B920E028B93FEF3AB93BB90E94350023
:1000300010E02FEF5FEF6FEF73E080E0F0E0E0EDB6
:10004000449136B1303041F505B300FFFACF0EE9E7
:1000500006BDA89A13951436A4F3112723952817E3
:1000600089F125B92F3041F0ECCF03E004BD05E064
:1000700005BD0EE906BD089520E0E3CF83958F30DE
:1000800001F3E39544914BB9DCCF8A958030C9F2F6
:10009000EA9544914BB9D5CF0E945300313071F3AA
:1000A000323099F3CECF0E9435005A955030D9F7AF
:1000B0005FEF6A956030B9F76FEF7A95703099F716
:1000C00073E008950E94530020E125B96BB90895AB
:1000D000C0F9A430999282F880908883C6A1868E58
:00000001FF
